{
  "_format": "hh-sol-artifact-1",
  "contractName": "WisdOnChain",
  "sourceName": "contracts/WisdOnChain.sol",
  "abi": [
    {
      "inputs": [],
      "stateMutability": "nonpayable",
      "type": "constructor"
    },
    {
      "anonymous": false,
      "inputs": [
        {
          "indexed": true,
          "internalType": "address",
          "name": "userAddress",
          "type": "address"
        },
        {
          "indexed": false,
          "internalType": "string",
          "name": "name",
          "type": "string"
        }
      ],
      "name": "CourseCreated",
      "type": "event"
    },
    {
      "anonymous": false,
      "inputs": [
        {
          "indexed": true,
          "internalType": "address",
          "name": "userAddress",
          "type": "address"
        },
        {
          "indexed": false,
          "internalType": "string",
          "name": "name",
          "type": "string"
        }
      ],
      "name": "CourseUpdated",
      "type": "event"
    },
    {
      "anonymous": false,
      "inputs": [
        {
          "indexed": true,
          "internalType": "address",
          "name": "previousOwner",
          "type": "address"
        },
        {
          "indexed": true,
          "internalType": "address",
          "name": "newOwner",
          "type": "address"
        }
      ],
      "name": "OwnershipTransferred",
      "type": "event"
    },
    {
      "anonymous": false,
      "inputs": [
        {
          "indexed": true,
          "internalType": "address",
          "name": "userAddress",
          "type": "address"
        }
      ],
      "name": "UserCreated",
      "type": "event"
    },
    {
      "anonymous": false,
      "inputs": [
        {
          "indexed": true,
          "internalType": "address",
          "name": "userAddress",
          "type": "address"
        }
      ],
      "name": "UserUpdated",
      "type": "event"
    },
    {
      "inputs": [
        {
          "internalType": "string",
          "name": "_name",
          "type": "string"
        },
        {
          "internalType": "string",
          "name": "_content",
          "type": "string"
        }
      ],
      "name": "addCourse",
      "outputs": [],
      "stateMutability": "nonpayable",
      "type": "function"
    },
    {
      "inputs": [
        {
          "internalType": "string",
          "name": "_content",
          "type": "string"
        },
        {
          "internalType": "enum WisdOnChain.UserRole",
          "name": "_userRole",
          "type": "uint8"
        }
      ],
      "name": "addUser",
      "outputs": [],
      "stateMutability": "nonpayable",
      "type": "function"
    },
    {
      "inputs": [
        {
          "internalType": "uint256",
          "name": "_idCourse",
          "type": "uint256"
        }
      ],
      "name": "getCourse",
      "outputs": [
        {
          "components": [
            {
              "internalType": "uint256",
              "name": "id",
              "type": "uint256"
            },
            {
              "internalType": "string",
              "name": "content",
              "type": "string"
            },
            {
              "internalType": "string",
              "name": "name",
              "type": "string"
            },
            {
              "internalType": "uint256",
              "name": "createdAt",
              "type": "uint256"
            }
          ],
          "internalType": "struct WisdOnChain.Course",
          "name": "",
          "type": "tuple"
        }
      ],
      "stateMutability": "view",
      "type": "function"
    },
    {
      "inputs": [],
      "name": "getCourses",
      "outputs": [
        {
          "components": [
            {
              "internalType": "uint256",
              "name": "id",
              "type": "uint256"
            },
            {
              "internalType": "string",
              "name": "content",
              "type": "string"
            },
            {
              "internalType": "string",
              "name": "name",
              "type": "string"
            },
            {
              "internalType": "uint256",
              "name": "createdAt",
              "type": "uint256"
            }
          ],
          "internalType": "struct WisdOnChain.Course[]",
          "name": "",
          "type": "tuple[]"
        }
      ],
      "stateMutability": "view",
      "type": "function"
    },
    {
      "inputs": [],
      "name": "getMytUser",
      "outputs": [
        {
          "components": [
            {
              "internalType": "uint256",
              "name": "id",
              "type": "uint256"
            },
            {
              "internalType": "string",
              "name": "content",
              "type": "string"
            },
            {
              "internalType": "uint256",
              "name": "createdAt",
              "type": "uint256"
            },
            {
              "internalType": "enum WisdOnChain.UserRole",
              "name": "role",
              "type": "uint8"
            },
            {
              "internalType": "bool",
              "name": "isExists",
              "type": "bool"
            }
          ],
          "internalType": "struct WisdOnChain.User",
          "name": "",
          "type": "tuple"
        }
      ],
      "stateMutability": "view",
      "type": "function"
    },
    {
      "inputs": [
        {
          "internalType": "uint256",
          "name": "_userId",
          "type": "uint256"
        }
      ],
      "name": "getUser",
      "outputs": [
        {
          "components": [
            {
              "internalType": "uint256",
              "name": "id",
              "type": "uint256"
            },
            {
              "internalType": "string",
              "name": "content",
              "type": "string"
            },
            {
              "internalType": "uint256",
              "name": "createdAt",
              "type": "uint256"
            },
            {
              "internalType": "enum WisdOnChain.UserRole",
              "name": "role",
              "type": "uint8"
            },
            {
              "internalType": "bool",
              "name": "isExists",
              "type": "bool"
            }
          ],
          "internalType": "struct WisdOnChain.User",
          "name": "",
          "type": "tuple"
        }
      ],
      "stateMutability": "view",
      "type": "function"
    },
    {
      "inputs": [],
      "name": "getUsers",
      "outputs": [
        {
          "components": [
            {
              "internalType": "uint256",
              "name": "id",
              "type": "uint256"
            },
            {
              "internalType": "string",
              "name": "content",
              "type": "string"
            },
            {
              "internalType": "uint256",
              "name": "createdAt",
              "type": "uint256"
            },
            {
              "internalType": "enum WisdOnChain.UserRole",
              "name": "role",
              "type": "uint8"
            },
            {
              "internalType": "bool",
              "name": "isExists",
              "type": "bool"
            }
          ],
          "internalType": "struct WisdOnChain.User[]",
          "name": "",
          "type": "tuple[]"
        }
      ],
      "stateMutability": "view",
      "type": "function"
    },
    {
      "inputs": [],
      "name": "owner",
      "outputs": [
        {
          "internalType": "address",
          "name": "",
          "type": "address"
        }
      ],
      "stateMutability": "view",
      "type": "function"
    },
    {
      "inputs": [],
      "name": "renounceOwnership",
      "outputs": [],
      "stateMutability": "nonpayable",
      "type": "function"
    },
    {
      "inputs": [
        {
          "internalType": "address",
          "name": "newOwner",
          "type": "address"
        }
      ],
      "name": "transferOwnership",
      "outputs": [],
      "stateMutability": "nonpayable",
      "type": "function"
    },
    {
      "inputs": [
        {
          "internalType": "uint256",
          "name": "_courseId",
          "type": "uint256"
        },
        {
          "internalType": "string",
          "name": "_name",
          "type": "string"
        },
        {
          "internalType": "string",
          "name": "_content",
          "type": "string"
        }
      ],
      "name": "updateCourse",
      "outputs": [],
      "stateMutability": "nonpayable",
      "type": "function"
    },
    {
      "inputs": [
        {
          "internalType": "string",
          "name": "_content",
          "type": "string"
        }
      ],
      "name": "updateUser",
      "outputs": [],
      "stateMutability": "nonpayable",
      "type": "function"
    },
    {
      "inputs": [
        {
          "internalType": "address",
          "name": "_userAddress",
          "type": "address"
        },
        {
          "internalType": "string",
          "name": "_content",
          "type": "string"
        }
      ],
      "name": "updateUserByOwner",
      "outputs": [],
      "stateMutability": "nonpayable",
      "type": "function"
    }
  ],
  "bytecode": "0x6080806040523461006c5760008054336001600160a01b0319821681178355916001600160a01b03909116907f8be0079c531659141344cd1fd0a4f28419497f9722a3daafe3b4186f6b6457e09080a360018054016001556001600254016002556119b090816100728239f35b600080fdfe6080604052600436101561001257600080fd5b60003560e01c8062ce8e3e146114605780630b4f12f6146112985780630b91e28d1461120b57806318edda4f14610f2e5780632b75565d14610991578063715018a6146109385780638da5cb5b1461090f57806394f9d84c14610569578063b0467deb1461052b578063cc126479146103ab578063d5c0ea8914610224578063edfcd075146101785763f2fde38b146100aa57600080fd5b34610173576020366003190112610173576100c3611729565b6100cb61173f565b6001600160a01b0390811690811561011f57600054826bffffffffffffffffffffffff60a01b821617600055167f8be0079c531659141344cd1fd0a4f28419497f9722a3daafe3b4186f6b6457e0600080a3005b60405162461bcd60e51b815260206004820152602660248201527f4f776e61626c653a206e6577206f776e657220697320746865207a65726f206160448201526564647265737360d01b6064820152608490fd5b600080fd5b34610173576000366003190112610173576101916118d8565b503360005260056020526040600020546000526006602052610220604060002060ff6003604051926101c28461163d565b805484526040516101e1816101da8160018601611842565b0382611673565b602085015260028101546040850152015461020182821660608501611797565b60081c16151560808201526040519182916020835260208301906115f3565b0390f35b346101735760403660031901126101735761023d611729565b6001600160401b036024358181116101735761025d903690600401611694565b9161026661173f565b60018060a01b0316600052602090600582526040600020546000526006825260019182604060002001938051928311610395576102a385546117a3565b601f811161034c575b5081601f84116001146102e957509282939183926000946102de575b50501b916000199060031b1c1916179055600080f35b0151925085806102c8565b919083601f1981168760005284600020946000905b888383106103325750505010610319575b505050811b019055005b015160001960f88460031b161c1916905583808061030f565b8587015188559096019594850194879350908101906102fe565b8560005282600020601f850160051c81019184861061038b575b601f0160051c019085905b82811061037f5750506102ac565b60008155018590610371565b9091508190610366565b634e487b7160e01b600052604160045260246000fd5b34610173576000366003190112610173576103cd6103c833611940565b6117dd565b600380546103da81611904565b916103e86040519384611673565b818352601f196103f783611904565b0160005b81811061051457505060005b82811061046d576040805160208082528651818301819052600093600582901b8401810192808a01929185015b8287106104415785850386f35b90919293828061045d600193603f198a820301865288516116ea565b9601920196019592919092610434565b600190818101918282116104fe576104f992600052836020600881526104b46040600020916104bb604051956104a287611658565b84548752604051938480928701611842565b0383611673565b8401526040516104d2816101da8160028601611842565b6040840152015460608201526104e8828761182e565b526104f3818661182e565b5061181f565b610407565b634e487b7160e01b600052601160045260246000fd5b60209061051f61191b565b828288010152016103fb565b34610173576020366003190112610173576105446118d8565b506004356000526006602052610220604060002060ff6003604051926101c28461163d565b34610173576060366003190112610173576001600160401b036004356024358281116101735761059d903690600401611694565b91604435818111610173576105b6903690600401611694565b923360005260209360078552604060002093604051808688829854938481520190600052886000209260005b8a8282106108f9575050506105f992500386611673565b60009460005b81518110156108ee5782610613828461182e565b5114610627576106229061181f565b6105ff565b5050909192935060015b156108b65760005260088452604060002060028101928051858111610395578061065b86546117a3565b92601f93848111610867575b508890848311600114610802576000926107f7575b50508160011b916000199060031b1c19161784555b6001809201928051958611610395576106aa84546117a3565b8281116107b1575b508691861160011461072757948061071795949381937f5fffae3bc18eed7e12334f9f39af3ec65f12d6f27d3b14e180b91349223348bb9860009461071c575b50501b916000199060031b1c19161790555b6040519182918583523395830190611842565b0390a2005b0151925089806106f2565b90601f1986169184600052876000209260005b8982821061079d575050916107179695949391887f5fffae3bc18eed7e12334f9f39af3ec65f12d6f27d3b14e180b91349223348bb999410610784575b505050811b019055610704565b015160001960f88460031b161c19169055878080610777565b83850151865594860194938401930161073a565b84600052876000208380890160051c8201928a8a106107ee575b0160051c019084905b8281106107e25750506106b2565b600081550184906107d4565b925081926107cb565b01519050888061067c565b60008881528a81209350601f198516905b8b828210610851575050908460019594939210610838575b505050811b018455610691565b015160001960f88460031b161c1916905588808061082b565b6001859682939686015181550195019301610813565b90915086600052886000208480850160051c8201928b86106108ad575b9085949392910160051c01905b81811061089e5750610667565b60008155849350600101610891565b92508192610884565b60405162461bcd60e51b815260048101869052601060248201526f10dbdd5c9cd9481b9bdd08199bdd5b9960821b6044820152606490fd5b505090919293610631565b855484526001958601958b9550930192016105e2565b34610173576000366003190112610173576000546040516001600160a01b039091168152602090f35b346101735760003660031901126101735761095161173f565b600080546001600160a01b0319811682556001600160a01b03167f8be0079c531659141344cd1fd0a4f28419497f9722a3daafe3b4186f6b6457e08280a3005b34610173576040366003190112610173576004356001600160401b038111610173576109c1903690600401611694565b6024356001600160401b038111610173576109e0903690600401611694565b6109ec6103c833611940565b600090336000526007602052604060002060405190816020825491828152019160005260206000209060005b818110610f185750505081610a2e910382611673565b602084019060005b8151811015610f0f57610a49818361182e565b5160005260086020526101da610a6c600260406000200160405192838092611842565b604051610a9660208281610a8981830196878151938492016115ab565b8101038084520182611673565b5190206040516020810190610ab46020828b51610a8981878c6115ab565b51902014610aca57610ac59061181f565b610a36565b505050905060015b610ebc57336000526005602052604060002054600052600660205260ff600360406000200154166002811015610ea657610e69576002549033600052600760205260406000208054600160401b8110156103955760018101808355811015610cbd57839160005260206000200155604051610b4c81611658565b8281526020810191825283604082015242606082015282600052600860205260406000209181518355518051906001600160401b038211610395578190610b9660018601546117a3565b601f8111610e16575b50602090601f8311600114610da457600092610d99575b50508160011b916000199060031b1c19161760018301555b60408101518051906001600160401b03821161039557610bf160028501546117a3565b601f8111610d52575b50602090601f8311600114610cde57918060039492606094600092610cd3575b50508160011b9160001990861b1c19161760028501555b0151910155600354600160401b811015610395576001810180600355811015610cbd5760036000527fc2575a0e9e593c00f959f8c92f12db2869c3395a3b0502d05e2516446f71f85b01556001600254016002557f77a171ace0affbec12f6ed1485b149ca5f62557b99ff875d266abf44ac8f2be56040516020815280610717339460208301906115ce565b634e487b7160e01b600052603260045260246000fd5b015190508880610c1a565b906002850160005260206000209160005b601f1985168110610d3a5750926003949260019260609583601f19811610610d22575b505050811b016002850155610c31565b015160001983881b60f8161c19169055888080610d12565b91926020600181928685015181550194019201610cef565b600285016000526020600020601f840160051c810160208510610d92575b601f830160051c82018110610d86575050610bfa565b60008155600101610d70565b5080610d70565b015190508680610bb6565b9250600185016000526020600020906000935b601f1984168510610dfb576001945083601f19811610610de2575b505050811b016001830155610bce565b015160001960f88460031b161c19169055868080610dd2565b81810151835560209485019460019093019290910190610db7565b909150600185016000526020600020601f840160051c810160208510610e62575b90849392915b601f830160051c82018110610e53575050610b9f565b60008155859450600101610e3d565b5080610e37565b60405162461bcd60e51b8152602060048201526015602482015274155cd95c881a5cc81b9bdd08185b88115e1c195c9d605a1b6044820152606490fd5b634e487b7160e01b600052602160045260246000fd5b60405162461bcd60e51b815260206004820152602560248201527f436f7572736520616c7265616479206372656174656420666f722074686520656044820152641e1c195c9d60da1b6064820152608490fd5b50505090610ad2565b8254845260209093019260019283019201610a18565b34610173576040366003190112610173576001600160401b0360043581811161017357610f5f903690600401611694565b60248035600281101561017357610f7533611940565b6111d05760019384549333600052602090600582528560406000205560405190610f9e8261163d565b8682528282019081526040820190428252610fbd606084019687611797565b6080830194898652886000526006855260406000209351845589840191519485519182116111bb57610fef83546117a3565b601f8111611172575b5080601f831160011461110b57508190600396600092611100575b505060001982871b1c1916908a1b1790555b5160028201550191519060028210156110eb5760ff61ff0084549251151560081b1692169061ffff19161717905560045490600160401b8210156110d757838201806004558210156110c357507f8a35acfbc15ff81a39ae7d344fd709f28e8600b4aa8c65c6b64bfe7fe36bd19b0155808054019055337f0b0376a109cbb578b709f85f6a7befcdac3ac1ab251c99ede87f30c9572ac4d3600080a2005b634e487b7160e01b60009081526032600452fd5b634e487b7160e01b60009081526041600452fd5b83634e487b7160e01b60005260216004526000fd5b015190508b80611013565b8b9291601f1983168560005282600020926000905b828210611159575050978360039910611141575b505050811b019055611025565b015160001983891b60f8161c191690558b8080611134565b838b015185558f96909401939283019290810190611120565b8360005281600020601f840160051c8101918385106111b1575b601f0160051c01908c905b8281106111a5575050610ff8565b60008155018c90611197565b909150819061118c565b88634e487b7160e01b60005260416004526000fd5b60405162461bcd60e51b81526020600482015260148184015273155cd95c88185b1c9958591e4818dc99585d195960621b6044820152606490fd5b346101735760203660031901126101735761122461191b565b506004356000526008602052610220604060002060036040519161124783611658565b8054835260405161125f816101da8160018601611842565b6020840152604051611278816101da8160028601611842565b6040840152015460608201526040519182916020835260208301906116ea565b3461017357602080600319360112610173576001600160401b0390600435828111610173576112cb903690600401611694565b916112d533611940565b1561142657336000526005825260406000205460005260068252600191826040600020019380519283116103955761130d85546117a3565b601f81116113dd575b5081601f8411600114611377575092829391839260009461136c575b50501b916000199060031b1c19161790555b337f0163b5f10e25c839f35e6f2b201b31e88e17f49e6956232de5d2e6bbae3b78b8600080a2005b015192508580611332565b919083601f1981168760005284600020946000905b888383106113c357505050106113aa575b505050811b019055611344565b015160001960f88460031b161c1916905583808061139d565b85870151885590960195948501948793509081019061138c565b8560005282600020601f850160051c81019184861061141c575b601f0160051c019085905b828110611410575050611316565b60008155018590611402565b90915081906113f7565b60405162461bcd60e51b8152600481018390526012602482015271155cd95c88191bd95cdb89dd08195e1a5cdd60721b6044820152606490fd5b346101735760003660031901126101735761147961173f565b60045461148581611904565b906114936040519283611673565b808252601f196114a282611904565b0160005b81811061159457505060005b818110611518576040805160208082528551818301819052600093600582901b8401810192808901929185015b8287106114ec5785850386f35b909192938280611508600193603f198a820301865288516115f3565b96019201960195929190926114df565b600190818101918282116104fe5761158f9260005260036020600681526104b460406000209161154e604051956104a28761163d565b84015260028101546040840152015460ff9061156f82821660608501611797565b60081c1615156080820152611584828661182e565b526104f3818561182e565b6114b2565b60209061159f6118d8565b828287010152016114a6565b60005b8381106115be5750506000910152565b81810151838201526020016115ae565b906020916115e7815180928185528580860191016115ab565b601f01601f1916010190565b9081518152611611602083015160a0602084015260a08301906115ce565b916040810151604083015260608101516002811015610ea6576060830152608090810151151591015290565b60a081019081106001600160401b0382111761039557604052565b608081019081106001600160401b0382111761039557604052565b90601f801991011681019081106001600160401b0382111761039557604052565b81601f82011215610173578035906001600160401b03821161039557604051926116c8601f8401601f191660200185611673565b8284526020838301011161017357816000926020809301838601378301015290565b908151815260608061172061170e60208601516080602087015260808601906115ce565b604086015185820360408701526115ce565b93015191015290565b600435906001600160a01b038216820361017357565b6000546001600160a01b0316330361175357565b606460405162461bcd60e51b815260206004820152602060248201527f4f776e61626c653a2063616c6c6572206973206e6f7420746865206f776e65726044820152fd5b6002821015610ea65752565b90600182811c921680156117d3575b60208310146117bd57565b634e487b7160e01b600052602260045260246000fd5b91607f16916117b2565b156117e457565b60405162461bcd60e51b8152602060048201526013602482015272155cd95c88191bd95cc81b9bdd08195e1a5cdd606a1b6044820152606490fd5b60001981146104fe5760010190565b8051821015610cbd5760209160051b010190565b9060009291805491611853836117a3565b9182825260019384811690816000146118b55750600114611875575b50505050565b90919394506000526020928360002092846000945b8386106118a157505050500101903880808061186f565b80548587018301529401938590820161188a565b9294505050602093945060ff191683830152151560051b0101903880808061186f565b604051906118e58261163d565b6000608083828152606060208201528260408201528260608201520152565b6001600160401b0381116103955760051b60200190565b6040519061192882611658565b60006060838281528160208201528160408201520152565b6001600160a01b03166000908152600560205260409020548015611974576000526006602052600260406000200154151590565b5060009056fea26469706673582212209b1f74294b381be03d76fa8410adc02286cf1acc2ec923ecc6724222e8d8f0f164736f6c63430008140033",
  "linkReferences": {},
  "deployedLinkReferences": {}
}