{
  "_format": "hh-sol-artifact-1",
  "contractName": "WisdOnChain",
  "sourceName": "contracts/WisdOnChain.sol",
  "abi": [
    {
      "inputs": [],
      "stateMutability": "nonpayable",
      "type": "constructor"
    },
    {
      "anonymous": false,
      "inputs": [
        {
          "indexed": true,
          "internalType": "address",
          "name": "userAddress",
          "type": "address"
        },
        {
          "indexed": false,
          "internalType": "string",
          "name": "name",
          "type": "string"
        }
      ],
      "name": "CourseCreated",
      "type": "event"
    },
    {
      "anonymous": false,
      "inputs": [
        {
          "indexed": true,
          "internalType": "address",
          "name": "userAddress",
          "type": "address"
        },
        {
          "indexed": false,
          "internalType": "string",
          "name": "name",
          "type": "string"
        }
      ],
      "name": "CourseUpdated",
      "type": "event"
    },
    {
      "anonymous": false,
      "inputs": [
        {
          "indexed": true,
          "internalType": "address",
          "name": "previousOwner",
          "type": "address"
        },
        {
          "indexed": true,
          "internalType": "address",
          "name": "newOwner",
          "type": "address"
        }
      ],
      "name": "OwnershipTransferred",
      "type": "event"
    },
    {
      "anonymous": false,
      "inputs": [
        {
          "indexed": true,
          "internalType": "address",
          "name": "userAddress",
          "type": "address"
        }
      ],
      "name": "UserCreated",
      "type": "event"
    },
    {
      "anonymous": false,
      "inputs": [
        {
          "indexed": true,
          "internalType": "address",
          "name": "userAddress",
          "type": "address"
        }
      ],
      "name": "UserUpdated",
      "type": "event"
    },
    {
      "inputs": [
        {
          "internalType": "string",
          "name": "_name",
          "type": "string"
        },
        {
          "internalType": "string",
          "name": "_content",
          "type": "string"
        }
      ],
      "name": "addCourse",
      "outputs": [],
      "stateMutability": "nonpayable",
      "type": "function"
    },
    {
      "inputs": [
        {
          "internalType": "string",
          "name": "_content",
          "type": "string"
        },
        {
          "internalType": "enum WisdOnChain.UserRole",
          "name": "_userRole",
          "type": "uint8"
        }
      ],
      "name": "addUser",
      "outputs": [],
      "stateMutability": "nonpayable",
      "type": "function"
    },
    {
      "inputs": [
        {
          "internalType": "uint256",
          "name": "_idCourse",
          "type": "uint256"
        }
      ],
      "name": "getCourse",
      "outputs": [
        {
          "components": [
            {
              "internalType": "uint256",
              "name": "id",
              "type": "uint256"
            },
            {
              "internalType": "string",
              "name": "content",
              "type": "string"
            },
            {
              "internalType": "string",
              "name": "name",
              "type": "string"
            },
            {
              "internalType": "uint256",
              "name": "createdAt",
              "type": "uint256"
            }
          ],
          "internalType": "struct WisdOnChain.Course",
          "name": "",
          "type": "tuple"
        }
      ],
      "stateMutability": "view",
      "type": "function"
    },
    {
      "inputs": [],
      "name": "getCourses",
      "outputs": [
        {
          "components": [
            {
              "internalType": "uint256",
              "name": "id",
              "type": "uint256"
            },
            {
              "internalType": "string",
              "name": "content",
              "type": "string"
            },
            {
              "internalType": "string",
              "name": "name",
              "type": "string"
            },
            {
              "internalType": "uint256",
              "name": "createdAt",
              "type": "uint256"
            }
          ],
          "internalType": "struct WisdOnChain.Course[]",
          "name": "",
          "type": "tuple[]"
        }
      ],
      "stateMutability": "view",
      "type": "function"
    },
    {
      "inputs": [],
      "name": "getMyUser",
      "outputs": [
        {
          "components": [
            {
              "internalType": "uint256",
              "name": "id",
              "type": "uint256"
            },
            {
              "internalType": "string",
              "name": "content",
              "type": "string"
            },
            {
              "internalType": "uint256",
              "name": "createdAt",
              "type": "uint256"
            },
            {
              "internalType": "enum WisdOnChain.UserRole",
              "name": "role",
              "type": "uint8"
            },
            {
              "internalType": "bool",
              "name": "isExists",
              "type": "bool"
            }
          ],
          "internalType": "struct WisdOnChain.User",
          "name": "",
          "type": "tuple"
        }
      ],
      "stateMutability": "view",
      "type": "function"
    },
    {
      "inputs": [
        {
          "internalType": "uint256",
          "name": "_userId",
          "type": "uint256"
        }
      ],
      "name": "getUser",
      "outputs": [
        {
          "components": [
            {
              "internalType": "uint256",
              "name": "id",
              "type": "uint256"
            },
            {
              "internalType": "string",
              "name": "content",
              "type": "string"
            },
            {
              "internalType": "uint256",
              "name": "createdAt",
              "type": "uint256"
            },
            {
              "internalType": "enum WisdOnChain.UserRole",
              "name": "role",
              "type": "uint8"
            },
            {
              "internalType": "bool",
              "name": "isExists",
              "type": "bool"
            }
          ],
          "internalType": "struct WisdOnChain.User",
          "name": "",
          "type": "tuple"
        }
      ],
      "stateMutability": "view",
      "type": "function"
    },
    {
      "inputs": [],
      "name": "getUsers",
      "outputs": [
        {
          "components": [
            {
              "internalType": "uint256",
              "name": "id",
              "type": "uint256"
            },
            {
              "internalType": "string",
              "name": "content",
              "type": "string"
            },
            {
              "internalType": "uint256",
              "name": "createdAt",
              "type": "uint256"
            },
            {
              "internalType": "enum WisdOnChain.UserRole",
              "name": "role",
              "type": "uint8"
            },
            {
              "internalType": "bool",
              "name": "isExists",
              "type": "bool"
            }
          ],
          "internalType": "struct WisdOnChain.User[]",
          "name": "",
          "type": "tuple[]"
        }
      ],
      "stateMutability": "view",
      "type": "function"
    },
    {
      "inputs": [],
      "name": "owner",
      "outputs": [
        {
          "internalType": "address",
          "name": "",
          "type": "address"
        }
      ],
      "stateMutability": "view",
      "type": "function"
    },
    {
      "inputs": [],
      "name": "renounceOwnership",
      "outputs": [],
      "stateMutability": "nonpayable",
      "type": "function"
    },
    {
      "inputs": [
        {
          "internalType": "address",
          "name": "newOwner",
          "type": "address"
        }
      ],
      "name": "transferOwnership",
      "outputs": [],
      "stateMutability": "nonpayable",
      "type": "function"
    },
    {
      "inputs": [
        {
          "internalType": "uint256",
          "name": "_courseId",
          "type": "uint256"
        },
        {
          "internalType": "string",
          "name": "_name",
          "type": "string"
        },
        {
          "internalType": "string",
          "name": "_content",
          "type": "string"
        }
      ],
      "name": "updateCourse",
      "outputs": [],
      "stateMutability": "nonpayable",
      "type": "function"
    },
    {
      "inputs": [
        {
          "internalType": "string",
          "name": "_content",
          "type": "string"
        }
      ],
      "name": "updateUser",
      "outputs": [],
      "stateMutability": "nonpayable",
      "type": "function"
    },
    {
      "inputs": [
        {
          "internalType": "address",
          "name": "_userAddress",
          "type": "address"
        },
        {
          "internalType": "string",
          "name": "_content",
          "type": "string"
        }
      ],
      "name": "updateUserByOwner",
      "outputs": [],
      "stateMutability": "nonpayable",
      "type": "function"
    }
  ],
  "bytecode": "0x6080806040523461006c5760008054336001600160a01b0319821681178355916001600160a01b03909116907f8be0079c531659141344cd1fd0a4f28419497f9722a3daafe3b4186f6b6457e09080a360018054016001556001600254016002556119a490816100728239f35b600080fdfe6080604052600436101561001257600080fd5b60003560e01c8062ce8e3e146114545780630b4f12f6146112c85780630b91e28d1461122f57806318edda4f14610f525780632b75565d146109b5578063715018a61461095c5780638da5cb5b1461093357806394f9d84c14610581578063b0467deb14610537578063cc126479146103bc578063d5c0ea8914610235578063ee7fb209146101785763f2fde38b146100aa57600080fd5b34610173576020366003190112610173576100c361171d565b6100cb611733565b6001600160a01b0390811690811561011f57600054826bffffffffffffffffffffffff60a01b821617600055167f8be0079c531659141344cd1fd0a4f28419497f9722a3daafe3b4186f6b6457e0600080a3005b60405162461bcd60e51b815260206004820152602660248201527f4f776e61626c653a206e6577206f776e657220697320746865207a65726f206160448201526564647265737360d01b6064820152608490fd5b600080fd5b34610173576000366003190112610173576101916118cc565b506101a361019e33611934565b6117d1565b3360005260056020526040600020546000526006602052610231604060002060ff6003604051926101d384611631565b805484526040516101f2816101eb8160018601611836565b0382611667565b60208501526002810154604085015201546102128282166060850161178b565b60081c16151560808201526040519182916020835260208301906115e7565b0390f35b346101735760403660031901126101735761024e61171d565b6001600160401b036024358181116101735761026e903690600401611688565b91610277611733565b60018060a01b03166000526020906005825260406000205460005260068252600191826040600020019380519283116103a6576102b48554611797565b601f811161035d575b5081601f84116001146102fa57509282939183926000946102ef575b50501b916000199060031b1c1916179055600080f35b0151925085806102d9565b919083601f1981168760005284600020946000905b88838310610343575050501061032a575b505050811b019055005b015160001960f88460031b161c19169055838080610320565b85870151885590960195948501948793509081019061030f565b8560005282600020601f850160051c81019184861061039c575b601f0160051c019085905b8281106103905750506102bd565b60008155018590610382565b9091508190610377565b634e487b7160e01b600052604160045260246000fd5b34610173576000366003190112610173576103d961019e33611934565b600380546103e6816118f8565b916103f46040519384611667565b818352601f19610403836118f8565b0160005b81811061052057505060005b828110610479576040805160208082528651818301819052600093600582901b8401810192808a01929185015b82871061044d5785850386f35b909192938280610469600193603f198a820301865288516116de565b9601920196019592919092610440565b6001908181019182821161050a5761050592600052836020600881526104c06040600020916104c7604051956104ae8761164c565b84548752604051938480928701611836565b0383611667565b8401526040516104de816101eb8160028601611836565b6040840152015460608201526104f48287611822565b526104ff8186611822565b50611813565b610413565b634e487b7160e01b600052601160045260246000fd5b60209061052b61190f565b82828801015201610407565b34610173576020366003190112610173576105506118cc565b5061055d61019e33611934565b6004356000526006602052610231604060002060ff6003604051926101d384611631565b34610173576060366003190112610173576001600160401b03600435602435828111610173576105b5903690600401611688565b91604435818111610173576105ce903690600401611688565b926105db61019e33611934565b3360005260209360078552604060002093604051808688829854938481520190600052886000209260005b8a82821061091d5750505061061d92500386611667565b60009460005b815181101561091257826106378284611822565b511461064b5761064690611813565b610623565b5050909192935060015b156108da57600052600884526040600020600281019280518581116103a6578061067f8654611797565b92601f9384811161088b575b5088908483116001146108265760009261081b575b50508160011b916000199060031b1c19161784555b60018092019280519586116103a6576106ce8454611797565b8281116107d5575b508691861160011461074b57948061073b95949381937f5fffae3bc18eed7e12334f9f39af3ec65f12d6f27d3b14e180b91349223348bb98600094610740575b50501b916000199060031b1c19161790555b6040519182918583523395830190611836565b0390a2005b015192508980610716565b90601f1986169184600052876000209260005b898282106107c15750509161073b9695949391887f5fffae3bc18eed7e12334f9f39af3ec65f12d6f27d3b14e180b91349223348bb9994106107a8575b505050811b019055610728565b015160001960f88460031b161c1916905587808061079b565b83850151865594860194938401930161075e565b84600052876000208380890160051c8201928a8a10610812575b0160051c019084905b8281106108065750506106d6565b600081550184906107f8565b925081926107ef565b0151905088806106a0565b60008881528a81209350601f198516905b8b82821061087557505090846001959493921061085c575b505050811b0184556106b5565b015160001960f88460031b161c1916905588808061084f565b6001859682939686015181550195019301610837565b90915086600052886000208480850160051c8201928b86106108d1575b9085949392910160051c01905b8181106108c2575061068b565b600081558493506001016108b5565b925081926108a8565b60405162461bcd60e51b815260048101869052601060248201526f10dbdd5c9cd9481b9bdd08199bdd5b9960821b6044820152606490fd5b505090919293610655565b855484526001958601958b955093019201610606565b34610173576000366003190112610173576000546040516001600160a01b039091168152602090f35b3461017357600036600319011261017357610975611733565b600080546001600160a01b0319811682556001600160a01b03167f8be0079c531659141344cd1fd0a4f28419497f9722a3daafe3b4186f6b6457e08280a3005b34610173576040366003190112610173576004356001600160401b038111610173576109e5903690600401611688565b6024356001600160401b03811161017357610a04903690600401611688565b610a1061019e33611934565b600090336000526007602052604060002060405190816020825491828152019160005260206000209060005b818110610f3c5750505081610a52910382611667565b602084019060005b8151811015610f3357610a6d8183611822565b5160005260086020526101eb610a90600260406000200160405192838092611836565b604051610aba60208281610aad818301968781519384920161159f565b8101038084520182611667565b5190206040516020810190610ad86020828b51610aad81878c61159f565b51902014610aee57610ae990611813565b610a5a565b505050905060015b610ee057336000526005602052604060002054600052600660205260ff600360406000200154166002811015610eca57610e8d576002549033600052600760205260406000208054600160401b8110156103a65760018101808355811015610ce157839160005260206000200155604051610b708161164c565b8281526020810191825283604082015242606082015282600052600860205260406000209181518355518051906001600160401b0382116103a6578190610bba6001860154611797565b601f8111610e3a575b50602090601f8311600114610dc857600092610dbd575b50508160011b916000199060031b1c19161760018301555b60408101518051906001600160401b0382116103a657610c156002850154611797565b601f8111610d76575b50602090601f8311600114610d0257918060039492606094600092610cf7575b50508160011b9160001990861b1c19161760028501555b0151910155600354600160401b8110156103a6576001810180600355811015610ce15760036000527fc2575a0e9e593c00f959f8c92f12db2869c3395a3b0502d05e2516446f71f85b01556001600254016002557f77a171ace0affbec12f6ed1485b149ca5f62557b99ff875d266abf44ac8f2be5604051602081528061073b339460208301906115c2565b634e487b7160e01b600052603260045260246000fd5b015190508880610c3e565b906002850160005260206000209160005b601f1985168110610d5e5750926003949260019260609583601f19811610610d46575b505050811b016002850155610c55565b015160001983881b60f8161c19169055888080610d36565b91926020600181928685015181550194019201610d13565b600285016000526020600020601f840160051c810160208510610db6575b601f830160051c82018110610daa575050610c1e565b60008155600101610d94565b5080610d94565b015190508680610bda565b9250600185016000526020600020906000935b601f1984168510610e1f576001945083601f19811610610e06575b505050811b016001830155610bf2565b015160001960f88460031b161c19169055868080610df6565b81810151835560209485019460019093019290910190610ddb565b909150600185016000526020600020601f840160051c810160208510610e86575b90849392915b601f830160051c82018110610e77575050610bc3565b60008155859450600101610e61565b5080610e5b565b60405162461bcd60e51b8152602060048201526015602482015274155cd95c881a5cc81b9bdd08185b88115e1c195c9d605a1b6044820152606490fd5b634e487b7160e01b600052602160045260246000fd5b60405162461bcd60e51b815260206004820152602560248201527f436f7572736520616c7265616479206372656174656420666f722074686520656044820152641e1c195c9d60da1b6064820152608490fd5b50505090610af6565b8254845260209093019260019283019201610a3c565b34610173576040366003190112610173576001600160401b0360043581811161017357610f83903690600401611688565b60248035600281101561017357610f9933611934565b6111f45760019384549333600052602090600582528560406000205560405190610fc282611631565b8682528282019081526040820190428252610fe160608401968761178b565b6080830194898652886000526006855260406000209351845589840191519485519182116111df576110138354611797565b601f8111611196575b5080601f831160011461112f57508190600396600092611124575b505060001982871b1c1916908a1b1790555b51600282015501915190600282101561110f5760ff61ff0084549251151560081b1692169061ffff19161717905560045490600160401b8210156110fb57838201806004558210156110e757507f8a35acfbc15ff81a39ae7d344fd709f28e8600b4aa8c65c6b64bfe7fe36bd19b0155808054019055337f0b0376a109cbb578b709f85f6a7befcdac3ac1ab251c99ede87f30c9572ac4d3600080a2005b634e487b7160e01b60009081526032600452fd5b634e487b7160e01b60009081526041600452fd5b83634e487b7160e01b60005260216004526000fd5b015190508b80611037565b8b9291601f1983168560005282600020926000905b82821061117d575050978360039910611165575b505050811b019055611049565b015160001983891b60f8161c191690558b8080611158565b838b015185558f96909401939283019290810190611144565b8360005281600020601f840160051c8101918385106111d5575b601f0160051c01908c905b8281106111c957505061101c565b60008155018c906111bb565b90915081906111b0565b88634e487b7160e01b60005260416004526000fd5b60405162461bcd60e51b81526020600482015260148184015273155cd95c88185b1c9958591e4818dc99585d195960621b6044820152606490fd5b346101735760203660031901126101735761124861190f565b5061125561019e33611934565b600435600052600860205261023160406000206003604051916112778361164c565b8054835260405161128f816101eb8160018601611836565b60208401526040516112a8816101eb8160028601611836565b6040840152015460608201526040519182916020835260208301906116de565b3461017357602080600319360112610173576001600160401b0390600435828111610173576112fb903690600401611688565b9161130861019e33611934565b336000526005825260406000205460005260068252600191826040600020019380519283116103a65761133b8554611797565b601f811161140b575b5081601f84116001146113a5575092829391839260009461139a575b50501b916000199060031b1c19161790555b337f0163b5f10e25c839f35e6f2b201b31e88e17f49e6956232de5d2e6bbae3b78b8600080a2005b015192508580611360565b919083601f1981168760005284600020946000905b888383106113f157505050106113d8575b505050811b019055611372565b015160001960f88460031b161c191690558380806113cb565b8587015188559096019594850194879350908101906113ba565b8560005282600020601f850160051c81019184861061144a575b601f0160051c019085905b82811061143e575050611344565b60008155018590611430565b9091508190611425565b346101735760003660031901126101735761146d611733565b600454611479816118f8565b906114876040519283611667565b808252601f19611496826118f8565b0160005b81811061158857505060005b81811061150c576040805160208082528551818301819052600093600582901b8401810192808901929185015b8287106114e05785850386f35b9091929382806114fc600193603f198a820301865288516115e7565b96019201960195929190926114d3565b6001908181019182821161050a576115839260005260036020600681526104c0604060002091611542604051956104ae87611631565b84015260028101546040840152015460ff906115638282166060850161178b565b60081c16151560808201526115788286611822565b526104ff8185611822565b6114a6565b6020906115936118cc565b8282870101520161149a565b60005b8381106115b25750506000910152565b81810151838201526020016115a2565b906020916115db8151809281855285808601910161159f565b601f01601f1916010190565b9081518152611605602083015160a0602084015260a08301906115c2565b916040810151604083015260608101516002811015610eca576060830152608090810151151591015290565b60a081019081106001600160401b038211176103a657604052565b608081019081106001600160401b038211176103a657604052565b90601f801991011681019081106001600160401b038211176103a657604052565b81601f82011215610173578035906001600160401b0382116103a657604051926116bc601f8401601f191660200185611667565b8284526020838301011161017357816000926020809301838601378301015290565b908151815260608061171461170260208601516080602087015260808601906115c2565b604086015185820360408701526115c2565b93015191015290565b600435906001600160a01b038216820361017357565b6000546001600160a01b0316330361174757565b606460405162461bcd60e51b815260206004820152602060248201527f4f776e61626c653a2063616c6c6572206973206e6f7420746865206f776e65726044820152fd5b6002821015610eca5752565b90600182811c921680156117c7575b60208310146117b157565b634e487b7160e01b600052602260045260246000fd5b91607f16916117a6565b156117d857565b60405162461bcd60e51b8152602060048201526013602482015272155cd95c88191bd95cc81b9bdd08195e1a5cdd606a1b6044820152606490fd5b600019811461050a5760010190565b8051821015610ce15760209160051b010190565b906000929180549161184783611797565b9182825260019384811690816000146118a95750600114611869575b50505050565b90919394506000526020928360002092846000945b838610611895575050505001019038808080611863565b80548587018301529401938590820161187e565b9294505050602093945060ff191683830152151560051b01019038808080611863565b604051906118d982611631565b6000608083828152606060208201528260408201528260608201520152565b6001600160401b0381116103a65760051b60200190565b6040519061191c8261164c565b60006060838281528160208201528160408201520152565b6001600160a01b03166000908152600560205260409020548015611968576000526006602052600260406000200154151590565b5060009056fea26469706673582212207a726bdb1b10ecd4b6208d78e54cdcdd070bcca6029438a9582c93ba56ba4f4664736f6c63430008140033",
  "linkReferences": {},
  "deployedLinkReferences": {}
}