{
  "_format": "hh-sol-artifact-1",
  "contractName": "WisdOnChain",
  "sourceName": "contracts/WisdOnChain.sol",
  "abi": [
    {
      "inputs": [],
      "stateMutability": "nonpayable",
      "type": "constructor"
    },
    {
      "anonymous": false,
      "inputs": [
        {
          "indexed": true,
          "internalType": "address",
          "name": "userAddress",
          "type": "address"
        },
        {
          "indexed": false,
          "internalType": "string",
          "name": "name",
          "type": "string"
        }
      ],
      "name": "CourseCreated",
      "type": "event"
    },
    {
      "anonymous": false,
      "inputs": [
        {
          "indexed": true,
          "internalType": "address",
          "name": "userAddress",
          "type": "address"
        },
        {
          "indexed": false,
          "internalType": "string",
          "name": "name",
          "type": "string"
        }
      ],
      "name": "CourseUpdated",
      "type": "event"
    },
    {
      "anonymous": false,
      "inputs": [
        {
          "indexed": true,
          "internalType": "address",
          "name": "previousOwner",
          "type": "address"
        },
        {
          "indexed": true,
          "internalType": "address",
          "name": "newOwner",
          "type": "address"
        }
      ],
      "name": "OwnershipTransferred",
      "type": "event"
    },
    {
      "anonymous": false,
      "inputs": [
        {
          "indexed": true,
          "internalType": "address",
          "name": "userAddress",
          "type": "address"
        }
      ],
      "name": "UserCreated",
      "type": "event"
    },
    {
      "anonymous": false,
      "inputs": [
        {
          "indexed": true,
          "internalType": "address",
          "name": "userAddress",
          "type": "address"
        }
      ],
      "name": "UserUpdated",
      "type": "event"
    },
    {
      "stateMutability": "payable",
      "type": "fallback"
    },
    {
      "inputs": [
        {
          "internalType": "string",
          "name": "_name",
          "type": "string"
        },
        {
          "internalType": "string",
          "name": "_content",
          "type": "string"
        }
      ],
      "name": "addCourse",
      "outputs": [],
      "stateMutability": "nonpayable",
      "type": "function"
    },
    {
      "inputs": [
        {
          "internalType": "string",
          "name": "_content",
          "type": "string"
        },
        {
          "internalType": "enum WisdOnChain.UserRole",
          "name": "_userRole",
          "type": "uint8"
        }
      ],
      "name": "addUser",
      "outputs": [],
      "stateMutability": "nonpayable",
      "type": "function"
    },
    {
      "inputs": [],
      "name": "deposit",
      "outputs": [],
      "stateMutability": "payable",
      "type": "function"
    },
    {
      "inputs": [],
      "name": "getBalance",
      "outputs": [
        {
          "internalType": "uint256",
          "name": "",
          "type": "uint256"
        }
      ],
      "stateMutability": "view",
      "type": "function"
    },
    {
      "inputs": [
        {
          "internalType": "uint256",
          "name": "_idCourse",
          "type": "uint256"
        }
      ],
      "name": "getCourse",
      "outputs": [
        {
          "components": [
            {
              "internalType": "uint256",
              "name": "id",
              "type": "uint256"
            },
            {
              "internalType": "string",
              "name": "content",
              "type": "string"
            },
            {
              "internalType": "string",
              "name": "name",
              "type": "string"
            },
            {
              "internalType": "uint256",
              "name": "createdAt",
              "type": "uint256"
            }
          ],
          "internalType": "struct WisdOnChain.Course",
          "name": "",
          "type": "tuple"
        }
      ],
      "stateMutability": "view",
      "type": "function"
    },
    {
      "inputs": [],
      "name": "getCourses",
      "outputs": [
        {
          "components": [
            {
              "internalType": "uint256",
              "name": "id",
              "type": "uint256"
            },
            {
              "internalType": "string",
              "name": "content",
              "type": "string"
            },
            {
              "internalType": "string",
              "name": "name",
              "type": "string"
            },
            {
              "internalType": "uint256",
              "name": "createdAt",
              "type": "uint256"
            }
          ],
          "internalType": "struct WisdOnChain.Course[]",
          "name": "",
          "type": "tuple[]"
        }
      ],
      "stateMutability": "view",
      "type": "function"
    },
    {
      "inputs": [],
      "name": "getMyUser",
      "outputs": [
        {
          "components": [
            {
              "internalType": "uint256",
              "name": "id",
              "type": "uint256"
            },
            {
              "internalType": "string",
              "name": "content",
              "type": "string"
            },
            {
              "internalType": "uint256",
              "name": "createdAt",
              "type": "uint256"
            },
            {
              "internalType": "enum WisdOnChain.UserRole",
              "name": "role",
              "type": "uint8"
            },
            {
              "internalType": "bool",
              "name": "isExists",
              "type": "bool"
            }
          ],
          "internalType": "struct WisdOnChain.User",
          "name": "",
          "type": "tuple"
        }
      ],
      "stateMutability": "view",
      "type": "function"
    },
    {
      "inputs": [
        {
          "internalType": "uint256",
          "name": "_userId",
          "type": "uint256"
        }
      ],
      "name": "getUser",
      "outputs": [
        {
          "components": [
            {
              "internalType": "uint256",
              "name": "id",
              "type": "uint256"
            },
            {
              "internalType": "string",
              "name": "content",
              "type": "string"
            },
            {
              "internalType": "uint256",
              "name": "createdAt",
              "type": "uint256"
            },
            {
              "internalType": "enum WisdOnChain.UserRole",
              "name": "role",
              "type": "uint8"
            },
            {
              "internalType": "bool",
              "name": "isExists",
              "type": "bool"
            }
          ],
          "internalType": "struct WisdOnChain.User",
          "name": "",
          "type": "tuple"
        }
      ],
      "stateMutability": "view",
      "type": "function"
    },
    {
      "inputs": [],
      "name": "getUsers",
      "outputs": [
        {
          "components": [
            {
              "internalType": "uint256",
              "name": "id",
              "type": "uint256"
            },
            {
              "internalType": "string",
              "name": "content",
              "type": "string"
            },
            {
              "internalType": "uint256",
              "name": "createdAt",
              "type": "uint256"
            },
            {
              "internalType": "enum WisdOnChain.UserRole",
              "name": "role",
              "type": "uint8"
            },
            {
              "internalType": "bool",
              "name": "isExists",
              "type": "bool"
            }
          ],
          "internalType": "struct WisdOnChain.User[]",
          "name": "",
          "type": "tuple[]"
        }
      ],
      "stateMutability": "view",
      "type": "function"
    },
    {
      "inputs": [],
      "name": "owner",
      "outputs": [
        {
          "internalType": "address",
          "name": "",
          "type": "address"
        }
      ],
      "stateMutability": "view",
      "type": "function"
    },
    {
      "inputs": [],
      "name": "renounceOwnership",
      "outputs": [],
      "stateMutability": "nonpayable",
      "type": "function"
    },
    {
      "inputs": [
        {
          "internalType": "address payable",
          "name": "_to",
          "type": "address"
        },
        {
          "internalType": "uint256",
          "name": "_amount",
          "type": "uint256"
        }
      ],
      "name": "transferEther",
      "outputs": [],
      "stateMutability": "nonpayable",
      "type": "function"
    },
    {
      "inputs": [
        {
          "internalType": "address",
          "name": "newOwner",
          "type": "address"
        }
      ],
      "name": "transferOwnership",
      "outputs": [],
      "stateMutability": "nonpayable",
      "type": "function"
    },
    {
      "inputs": [
        {
          "internalType": "uint256",
          "name": "_courseId",
          "type": "uint256"
        },
        {
          "internalType": "string",
          "name": "_name",
          "type": "string"
        },
        {
          "internalType": "string",
          "name": "_content",
          "type": "string"
        }
      ],
      "name": "updateCourse",
      "outputs": [],
      "stateMutability": "nonpayable",
      "type": "function"
    },
    {
      "inputs": [
        {
          "internalType": "string",
          "name": "_content",
          "type": "string"
        }
      ],
      "name": "updateUser",
      "outputs": [],
      "stateMutability": "nonpayable",
      "type": "function"
    },
    {
      "inputs": [
        {
          "internalType": "address",
          "name": "_userAddress",
          "type": "address"
        },
        {
          "internalType": "string",
          "name": "_content",
          "type": "string"
        }
      ],
      "name": "updateUserByOwner",
      "outputs": [],
      "stateMutability": "nonpayable",
      "type": "function"
    },
    {
      "inputs": [],
      "name": "withdrawMoney",
      "outputs": [],
      "stateMutability": "nonpayable",
      "type": "function"
    },
    {
      "stateMutability": "payable",
      "type": "receive"
    }
  ],
  "bytecode": "0x6080806040523461006c5760008054336001600160a01b0319821681178355916001600160a01b03909116907f8be0079c531659141344cd1fd0a4f28419497f9722a3daafe3b4186f6b6457e09080a36001805401600155600160025401600255611c3290816100728239f35b600080fdfe60806040526004361015610018575b361561001657005b005b60003560e01c8062ce8e3e146116d657806305b1137b146115895780630b4f12f6146113fd5780630b91e28d1461136457806312065fe01461134857806318edda4f1461106b5780632b75565d14610ace578063715018a614610a755780638da5cb5b14610a4c57806394f9d84c1461069a578063ac44600214610654578063b0467deb1461060a578063cc1264791461048f578063d0e30db0146103e9578063d5c0ea8914610262578063ee7fb209146101a55763f2fde38b0361000e57346101a05760203660031901126101a0576100f06119ab565b6100f86119c1565b6001600160a01b0390811690811561014c57600054826bffffffffffffffffffffffff60a01b821617600055167f8be0079c531659141344cd1fd0a4f28419497f9722a3daafe3b4186f6b6457e0600080a3005b60405162461bcd60e51b815260206004820152602660248201527f4f776e61626c653a206e6577206f776e657220697320746865207a65726f206160448201526564647265737360d01b6064820152608490fd5b600080fd5b346101a05760003660031901126101a0576101be611b5a565b506101d06101cb33611bc2565b611a5f565b336000526005602052604060002054600052600660205261025e604060002060ff600360405192610200846118b3565b8054845260405161021f816102188160018601611ac4565b03826118e9565b602085015260028101546040850152015461023f82821660608501611a19565b60081c1615156080820152604051918291602083526020830190611869565b0390f35b346101a05760403660031901126101a05761027b6119ab565b6001600160401b036024358181116101a05761029b903690600401611925565b916102a46119c1565b60018060a01b03166000526020906005825260406000205460005260068252600191826040600020019380519283116103d3576102e18554611a25565b601f811161038a575b5081601f8411600114610327575092829391839260009461031c575b50501b916000199060031b1c1916179055600080f35b015192508580610306565b919083601f1981168760005284600020946000905b888383106103705750505010610357575b505050811b019055005b015160001960f88460031b161c1916905583808061034d565b85870151885590960195948501948793509081019061033c565b8560005282600020601f850160051c8101918486106103c9575b601f0160051c019085905b8281106103bd5750506102ea565b600081550185906103af565b90915081906103a4565b634e487b7160e01b600052604160045260246000fd5b60003660031901126101a057341561044a573331341161040557005b60405162461bcd60e51b815260206004820152601d60248201527f53656e646572206d757374206861766520656e6f7567682065746865720000006044820152606490fd5b60405162461bcd60e51b815260206004820152601d60248201527f416d6f756e74206d7573742062652067726561746572207468616e20300000006044820152606490fd5b346101a05760003660031901126101a0576104ac6101cb33611bc2565b600380546104b981611b86565b916104c760405193846118e9565b818352601f196104d683611b86565b0160005b8181106105f357505060005b82811061054c576040805160208082528651818301819052600093600582901b8401810192808a01929185015b8287106105205785850386f35b90919293828061053c600193603f198a8203018652885161196c565b9601920196019592919092610513565b600190818101918282116105dd576105d8926000528360206008815261059360406000209161059a60405195610581876118ce565b84548752604051938480928701611ac4565b03836118e9565b8401526040516105b1816102188160028601611ac4565b6040840152015460608201526105c78287611ab0565b526105d28186611ab0565b50611aa1565b6104e6565b634e487b7160e01b600052601160045260246000fd5b6020906105fe611b9d565b828288010152016104da565b346101a05760203660031901126101a057610623611b5a565b506106306101cb33611bc2565b600435600052600660205261025e604060002060ff600360405192610200846118b3565b346101a05760003660031901126101a05761066d6119c1565b600080808047818115610691575b3390f11561068557005b6040513d6000823e3d90fd5b506108fc61067b565b346101a05760603660031901126101a0576001600160401b036004356024358281116101a0576106ce903690600401611925565b916044358181116101a0576106e7903690600401611925565b926106f46101cb33611bc2565b3360005260209360078552604060002093604051808688829854938481520190600052886000209260005b8a828210610a3657505050610736925003866118e9565b60009460005b8151811015610a2b57826107508284611ab0565b51146107645761075f90611aa1565b61073c565b5050909192935060015b156109f357600052600884526040600020600281019280518581116103d357806107988654611a25565b92601f938481116109a4575b50889084831160011461093f57600092610934575b50508160011b916000199060031b1c19161784555b60018092019280519586116103d3576107e78454611a25565b8281116108ee575b508691861160011461086457948061085495949381937f5fffae3bc18eed7e12334f9f39af3ec65f12d6f27d3b14e180b91349223348bb98600094610859575b50501b916000199060031b1c19161790555b6040519182918583523395830190611ac4565b0390a2005b01519250898061082f565b90601f1986169184600052876000209260005b898282106108da575050916108549695949391887f5fffae3bc18eed7e12334f9f39af3ec65f12d6f27d3b14e180b91349223348bb9994106108c1575b505050811b019055610841565b015160001960f88460031b161c191690558780806108b4565b838501518655948601949384019301610877565b84600052876000208380890160051c8201928a8a1061092b575b0160051c019084905b82811061091f5750506107ef565b60008155018490610911565b92508192610908565b0151905088806107b9565b60008881528a81209350601f198516905b8b82821061098e575050908460019594939210610975575b505050811b0184556107ce565b015160001960f88460031b161c19169055888080610968565b6001859682939686015181550195019301610950565b90915086600052886000208480850160051c8201928b86106109ea575b9085949392910160051c01905b8181106109db57506107a4565b600081558493506001016109ce565b925081926109c1565b60405162461bcd60e51b815260048101869052601060248201526f10dbdd5c9cd9481b9bdd08199bdd5b9960821b6044820152606490fd5b50509091929361076e565b855484526001958601958b95509301920161071f565b346101a05760003660031901126101a0576000546040516001600160a01b039091168152602090f35b346101a05760003660031901126101a057610a8e6119c1565b600080546001600160a01b0319811682556001600160a01b03167f8be0079c531659141344cd1fd0a4f28419497f9722a3daafe3b4186f6b6457e08280a3005b346101a05760403660031901126101a0576004356001600160401b0381116101a057610afe903690600401611925565b6024356001600160401b0381116101a057610b1d903690600401611925565b610b296101cb33611bc2565b600090336000526007602052604060002060405190816020825491828152019160005260206000209060005b8181106110555750505081610b6b9103826118e9565b602084019060005b815181101561104c57610b868183611ab0565b516000526008602052610218610ba9600260406000200160405192838092611ac4565b604051610bd360208281610bc68183019687815193849201611821565b81010380845201826118e9565b5190206040516020810190610bf16020828b51610bc681878c611821565b51902014610c0757610c0290611aa1565b610b73565b505050905060015b610ff957336000526005602052604060002054600052600660205260ff600360406000200154166002811015610fe357610fa6576002549033600052600760205260406000208054600160401b8110156103d35760018101808355811015610dfa57839160005260206000200155604051610c89816118ce565b8281526020810191825283604082015242606082015282600052600860205260406000209181518355518051906001600160401b0382116103d3578190610cd36001860154611a25565b601f8111610f53575b50602090601f8311600114610ee157600092610ed6575b50508160011b916000199060031b1c19161760018301555b60408101518051906001600160401b0382116103d357610d2e6002850154611a25565b601f8111610e8f575b50602090601f8311600114610e1b57918060039492606094600092610e10575b50508160011b9160001990861b1c19161760028501555b0151910155600354600160401b8110156103d3576001810180600355811015610dfa5760036000527fc2575a0e9e593c00f959f8c92f12db2869c3395a3b0502d05e2516446f71f85b01556001600254016002557f77a171ace0affbec12f6ed1485b149ca5f62557b99ff875d266abf44ac8f2be5604051602081528061085433946020830190611844565b634e487b7160e01b600052603260045260246000fd5b015190508880610d57565b906002850160005260206000209160005b601f1985168110610e775750926003949260019260609583601f19811610610e5f575b505050811b016002850155610d6e565b015160001983881b60f8161c19169055888080610e4f565b91926020600181928685015181550194019201610e2c565b600285016000526020600020601f840160051c810160208510610ecf575b601f830160051c82018110610ec3575050610d37565b60008155600101610ead565b5080610ead565b015190508680610cf3565b9250600185016000526020600020906000935b601f1984168510610f38576001945083601f19811610610f1f575b505050811b016001830155610d0b565b015160001960f88460031b161c19169055868080610f0f565b81810151835560209485019460019093019290910190610ef4565b909150600185016000526020600020601f840160051c810160208510610f9f575b90849392915b601f830160051c82018110610f90575050610cdc565b60008155859450600101610f7a565b5080610f74565b60405162461bcd60e51b8152602060048201526015602482015274155cd95c881a5cc81b9bdd08185b88115e1c195c9d605a1b6044820152606490fd5b634e487b7160e01b600052602160045260246000fd5b60405162461bcd60e51b815260206004820152602560248201527f436f7572736520616c7265616479206372656174656420666f722074686520656044820152641e1c195c9d60da1b6064820152608490fd5b50505090610c0f565b8254845260209093019260019283019201610b55565b346101a05760403660031901126101a0576001600160401b036004358181116101a05761109c903690600401611925565b6024803560028110156101a0576110b233611bc2565b61130d57600193845493336000526020906005825285604060002055604051906110db826118b3565b86825282820190815260408201904282526110fa606084019687611a19565b6080830194898652886000526006855260406000209351845589840191519485519182116112f85761112c8354611a25565b601f81116112af575b5080601f83116001146112485750819060039660009261123d575b505060001982871b1c1916908a1b1790555b5160028201550191519060028210156112285760ff61ff0084549251151560081b1692169061ffff19161717905560045490600160401b821015611214578382018060045582101561120057507f8a35acfbc15ff81a39ae7d344fd709f28e8600b4aa8c65c6b64bfe7fe36bd19b0155808054019055337f0b0376a109cbb578b709f85f6a7befcdac3ac1ab251c99ede87f30c9572ac4d3600080a2005b634e487b7160e01b60009081526032600452fd5b634e487b7160e01b60009081526041600452fd5b83634e487b7160e01b60005260216004526000fd5b015190508b80611150565b8b9291601f1983168560005282600020926000905b82821061129657505097836003991061127e575b505050811b019055611162565b015160001983891b60f8161c191690558b8080611271565b838b015185558f9690940193928301929081019061125d565b8360005281600020601f840160051c8101918385106112ee575b601f0160051c01908c905b8281106112e2575050611135565b60008155018c906112d4565b90915081906112c9565b88634e487b7160e01b60005260416004526000fd5b60405162461bcd60e51b81526020600482015260148184015273155cd95c88185b1c9958591e4818dc99585d195960621b6044820152606490fd5b346101a05760003660031901126101a057602047604051908152f35b346101a05760203660031901126101a05761137d611b9d565b5061138a6101cb33611bc2565b600435600052600860205261025e60406000206003604051916113ac836118ce565b805483526040516113c4816102188160018601611ac4565b60208401526040516113dd816102188160028601611ac4565b60408401520154606082015260405191829160208352602083019061196c565b346101a0576020806003193601126101a0576001600160401b03906004358281116101a057611430903690600401611925565b9161143d6101cb33611bc2565b336000526005825260406000205460005260068252600191826040600020019380519283116103d3576114708554611a25565b601f8111611540575b5081601f84116001146114da57509282939183926000946114cf575b50501b916000199060031b1c19161790555b337f0163b5f10e25c839f35e6f2b201b31e88e17f49e6956232de5d2e6bbae3b78b8600080a2005b015192508580611495565b919083601f1981168760005284600020946000905b88838310611526575050501061150d575b505050811b0190556114a7565b015160001960f88460031b161c19169055838080611500565b8587015188559096019594850194879350908101906114ef565b8560005282600020601f850160051c81019184861061157f575b601f0160051c019085905b828110611573575050611479565b60008155018590611565565b909150819061155a565b346101a05760403660031901126101a0576004356001600160a01b038116908190036101a057602435906115bb6119c1565b81471061168257662386f26fc100008131101561164c57600080809381935af13d15611647573d6115eb8161190a565b906115f960405192836118e9565b8152600060203d92013e5b1561160b57005b60405162461bcd60e51b81526020600482015260146024820152732330b4b632b2103a379039b2b7321022ba3432b960611b6044820152606490fd5b611604565b60405162461bcd60e51b815260206004820152600e60248201526d55736572206861732066756e647360901b6044820152606490fd5b60405162461bcd60e51b815260206004820152602660248201527f496e73756666696369656e742065746865722062616c616e636520696e20636f6044820152651b9d1c9858dd60d21b6064820152608490fd5b346101a05760003660031901126101a0576116ef6119c1565b6004546116fb81611b86565b9061170960405192836118e9565b808252601f1961171882611b86565b0160005b81811061180a57505060005b81811061178e576040805160208082528551818301819052600093600582901b8401810192808901929185015b8287106117625785850386f35b90919293828061177e600193603f198a82030186528851611869565b9601920196019592919092611755565b600190818101918282116105dd576118059260005260036020600681526105936040600020916117c460405195610581876118b3565b84015260028101546040840152015460ff906117e582821660608501611a19565b60081c16151560808201526117fa8286611ab0565b526105d28185611ab0565b611728565b602090611815611b5a565b8282870101520161171c565b60005b8381106118345750506000910152565b8181015183820152602001611824565b9060209161185d81518092818552858086019101611821565b601f01601f1916010190565b9081518152611887602083015160a0602084015260a0830190611844565b916040810151604083015260608101516002811015610fe3576060830152608090810151151591015290565b60a081019081106001600160401b038211176103d357604052565b608081019081106001600160401b038211176103d357604052565b90601f801991011681019081106001600160401b038211176103d357604052565b6001600160401b0381116103d357601f01601f191660200190565b81601f820112156101a05780359061193c8261190a565b9261194a60405194856118e9565b828452602083830101116101a057816000926020809301838601378301015290565b90815181526060806119a26119906020860151608060208701526080860190611844565b60408601518582036040870152611844565b93015191015290565b600435906001600160a01b03821682036101a057565b6000546001600160a01b031633036119d557565b606460405162461bcd60e51b815260206004820152602060248201527f4f776e61626c653a2063616c6c6572206973206e6f7420746865206f776e65726044820152fd5b6002821015610fe35752565b90600182811c92168015611a55575b6020831014611a3f57565b634e487b7160e01b600052602260045260246000fd5b91607f1691611a34565b15611a6657565b60405162461bcd60e51b8152602060048201526013602482015272155cd95c88191bd95cc81b9bdd08195e1a5cdd606a1b6044820152606490fd5b60001981146105dd5760010190565b8051821015610dfa5760209160051b010190565b9060009291805491611ad583611a25565b918282526001938481169081600014611b375750600114611af7575b50505050565b90919394506000526020928360002092846000945b838610611b23575050505001019038808080611af1565b805485870183015294019385908201611b0c565b9294505050602093945060ff191683830152151560051b01019038808080611af1565b60405190611b67826118b3565b6000608083828152606060208201528260408201528260608201520152565b6001600160401b0381116103d35760051b60200190565b60405190611baa826118ce565b60006060838281528160208201528160408201520152565b6001600160a01b03166000908152600560205260409020548015611bf6576000526006602052600260406000200154151590565b5060009056fea2646970667358221220d46a03825ddaaeffa6343fadaa6348ce32eb0b84e0c4c034e38f8d384cd3119d64736f6c63430008140033",
  "linkReferences": {},
  "deployedLinkReferences": {}
}