{
  "_format": "hh-sol-artifact-1",
  "contractName": "WisdOnChain",
  "sourceName": "contracts/WisdOnChain.sol",
  "abi": [
    {
      "inputs": [],
      "stateMutability": "nonpayable",
      "type": "constructor"
    },
    {
      "anonymous": false,
      "inputs": [
        {
          "indexed": true,
          "internalType": "address",
          "name": "userAddress",
          "type": "address"
        },
        {
          "indexed": false,
          "internalType": "string",
          "name": "courseName",
          "type": "string"
        }
      ],
      "name": "CourseCreated",
      "type": "event"
    },
    {
      "anonymous": false,
      "inputs": [
        {
          "indexed": true,
          "internalType": "address",
          "name": "previousOwner",
          "type": "address"
        },
        {
          "indexed": true,
          "internalType": "address",
          "name": "newOwner",
          "type": "address"
        }
      ],
      "name": "OwnershipTransferred",
      "type": "event"
    },
    {
      "anonymous": false,
      "inputs": [
        {
          "indexed": true,
          "internalType": "address",
          "name": "userAddress",
          "type": "address"
        }
      ],
      "name": "UserCreated",
      "type": "event"
    },
    {
      "inputs": [
        {
          "internalType": "string",
          "name": "_courseName",
          "type": "string"
        },
        {
          "internalType": "string",
          "name": "_content",
          "type": "string"
        }
      ],
      "name": "addCourse",
      "outputs": [],
      "stateMutability": "nonpayable",
      "type": "function"
    },
    {
      "inputs": [
        {
          "internalType": "string",
          "name": "_content",
          "type": "string"
        },
        {
          "internalType": "enum WisdOnChain.UserRole",
          "name": "_userRole",
          "type": "uint8"
        }
      ],
      "name": "addUser",
      "outputs": [],
      "stateMutability": "nonpayable",
      "type": "function"
    },
    {
      "inputs": [
        {
          "internalType": "uint256",
          "name": "_idCourse",
          "type": "uint256"
        }
      ],
      "name": "getCourse",
      "outputs": [
        {
          "components": [
            {
              "internalType": "uint256",
              "name": "id",
              "type": "uint256"
            },
            {
              "internalType": "string",
              "name": "content",
              "type": "string"
            },
            {
              "internalType": "string",
              "name": "courseName",
              "type": "string"
            },
            {
              "internalType": "uint256",
              "name": "createdAt",
              "type": "uint256"
            }
          ],
          "internalType": "struct WisdOnChain.Course",
          "name": "",
          "type": "tuple"
        }
      ],
      "stateMutability": "view",
      "type": "function"
    },
    {
      "inputs": [
        {
          "internalType": "address",
          "name": "_userAddress",
          "type": "address"
        }
      ],
      "name": "getUser",
      "outputs": [
        {
          "components": [
            {
              "internalType": "uint256",
              "name": "id",
              "type": "uint256"
            },
            {
              "internalType": "string",
              "name": "content",
              "type": "string"
            },
            {
              "internalType": "uint256",
              "name": "createdAt",
              "type": "uint256"
            },
            {
              "internalType": "enum WisdOnChain.UserRole",
              "name": "role",
              "type": "uint8"
            },
            {
              "internalType": "bool",
              "name": "isExists",
              "type": "bool"
            }
          ],
          "internalType": "struct WisdOnChain.User",
          "name": "",
          "type": "tuple"
        }
      ],
      "stateMutability": "view",
      "type": "function"
    },
    {
      "inputs": [],
      "name": "getUsers",
      "outputs": [
        {
          "components": [
            {
              "internalType": "uint256",
              "name": "id",
              "type": "uint256"
            },
            {
              "internalType": "string",
              "name": "content",
              "type": "string"
            },
            {
              "internalType": "uint256",
              "name": "createdAt",
              "type": "uint256"
            },
            {
              "internalType": "enum WisdOnChain.UserRole",
              "name": "role",
              "type": "uint8"
            },
            {
              "internalType": "bool",
              "name": "isExists",
              "type": "bool"
            }
          ],
          "internalType": "struct WisdOnChain.User[]",
          "name": "",
          "type": "tuple[]"
        }
      ],
      "stateMutability": "view",
      "type": "function"
    },
    {
      "inputs": [],
      "name": "owner",
      "outputs": [
        {
          "internalType": "address",
          "name": "",
          "type": "address"
        }
      ],
      "stateMutability": "view",
      "type": "function"
    },
    {
      "inputs": [],
      "name": "renounceOwnership",
      "outputs": [],
      "stateMutability": "nonpayable",
      "type": "function"
    },
    {
      "inputs": [
        {
          "internalType": "address",
          "name": "newOwner",
          "type": "address"
        }
      ],
      "name": "transferOwnership",
      "outputs": [],
      "stateMutability": "nonpayable",
      "type": "function"
    }
  ],
  "bytecode": "0x6080806040523461006c5760008054336001600160a01b0319821681178355916001600160a01b03909116907f8be0079c531659141344cd1fd0a4f28419497f9722a3daafe3b4186f6b6457e09080a360018054016001556001600254016002556110d790816100728239f35b600080fdfe6080604052600436101561001257600080fd5b60003560e01c8062ce8e3e14610c095780630b91e28d14610b4057806318edda4f146108625780632b75565d146102725780636f77926b146101c5578063715018a61461016c5780638da5cb5b146101435763f2fde38b1461007357600080fd5b3461013e57602036600319011261013e576004356001600160a01b038181169182900361013e576100a2610ebc565b81156100ea57600054826bffffffffffffffffffffffff60a01b821617600055167f8be0079c531659141344cd1fd0a4f28419497f9722a3daafe3b4186f6b6457e0600080a3005b60405162461bcd60e51b815260206004820152602660248201527f4f776e61626c653a206e6577206f776e657220697320746865207a65726f206160448201526564647265737360d01b6064820152608490fd5b600080fd5b3461013e57600036600319011261013e576000546040516001600160a01b039091168152602090f35b3461013e57600036600319011261013e57610185610ebc565b600080546001600160a01b0319811682556001600160a01b03167f8be0079c531659141344cd1fd0a4f28419497f9722a3daafe3b4186f6b6457e08280a3005b3461013e5760208060031936011261013e576004356001600160a01b0381169081900361013e576101f4610f5a565b50600052600581526040600020546000526006815260406000209060ff60036040519361022085610e0b565b8054855261023060018201610f86565b8486015260028101546040860152015461024f82821660608601610f14565b60081c161515608083015261026e604051928284938452830190610dc1565b0390f35b3461013e57604036600319011261013e5760043567ffffffffffffffff811161013e576102a3903690600401610e65565b60243567ffffffffffffffff811161013e576102c3903690600401610e65565b6102cc33611067565b1561082657600090336000526007602052604060002060405190816020825491828152019160005260206000209060005b8181106108105750505081610313910382610e43565b602084019060005b81518110156108075761032e8183611053565b5160005260086020526103476002604060002001610f86565b604051610371602082816103648183019687815193849201610d79565b8101038084520182610e43565b519020604051602081019061038f6020828b5161036481878c610d79565b519020146103a5576103a090611044565b61031b565b505050905060015b6107b457336000526005602052604060002054600052600660205260ff60036040600020015416600281101561079e57610761576002549033600052600760205260406000208054600160401b8110156105b5576001810180835581101561059f5783916000526020600020015560405161042781610e27565b82815260208101918252836040820152426060820152826000526008602052604060002091815183555180519067ffffffffffffffff82116105b55781906104726001860154610f20565b601f811161070e575b50602090601f831160011461069c57600092610691575b50508160011b916000199060031b1c19161760018301555b604081015180519067ffffffffffffffff82116105b5576104ce6002850154610f20565b601f811161064a575b50602090601f83116001146105d6579180600394926060946000926105cb575b50508160011b9160001990861b1c19161760028501555b0151910155600354600160401b8110156105b557600181018060035581101561059f5760036000527fc2575a0e9e593c00f959f8c92f12db2869c3395a3b0502d05e2516446f71f85b01556001600254016002557f77a171ace0affbec12f6ed1485b149ca5f62557b99ff875d266abf44ac8f2be5604051602081528061059a33946020830190610d9c565b0390a2005b634e487b7160e01b600052603260045260246000fd5b634e487b7160e01b600052604160045260246000fd5b0151905088806104f7565b906002850160005260206000209160005b601f19851681106106325750926003949260019260609583601f1981161061061a575b505050811b01600285015561050e565b015160001983881b60f8161c1916905588808061060a565b919260206001819286850151815501940192016105e7565b600285016000526020600020601f840160051c81016020851061068a575b601f830160051c8201811061067e5750506104d7565b60008155600101610668565b5080610668565b015190508680610492565b9250600185016000526020600020906000935b601f19841685106106f3576001945083601f198116106106da575b505050811b0160018301556104aa565b015160001960f88460031b161c191690558680806106ca565b818101518355602094850194600190930192909101906106af565b909150600185016000526020600020601f840160051c81016020851061075a575b90849392915b601f830160051c8201811061074b57505061047b565b60008155859450600101610735565b508061072f565b60405162461bcd60e51b8152602060048201526015602482015274155cd95c881a5cc81b9bdd08185b88115e1c195c9d605a1b6044820152606490fd5b634e487b7160e01b600052602160045260246000fd5b60405162461bcd60e51b815260206004820152602560248201527f436f7572736520616c7265616479206372656174656420666f722074686520656044820152641e1c195c9d60da1b6064820152608490fd5b505050906103ad565b82548452602090930192600192830192016102fd565b60405162461bcd60e51b81526020600482015260146024820152735573657220646f6573206e6f742065786973747360601b6044820152606490fd5b3461013e57604036600319011261013e5767ffffffffffffffff60043581811161013e57610894903690600401610e65565b60248035600281101561013e576108aa33611067565b610b0557600193845493336000526020906005825285604060002055604051906108d382610e0b565b86825282820190815260408201904282526108f2606084019687610f14565b608083019489865288600052600685526040600020935184558984019151948551918211610af0576109248354610f20565b601f8111610aa7575b5080601f8311600114610a4057508190600396600092610a35575b505060001982871b1c1916908a1b1790555b516002820155019151906002821015610a205760ff61ff0084549251151560081b1692169061ffff19161717905560045490600160401b821015610a0c57838201806004558210156109f857507f8a35acfbc15ff81a39ae7d344fd709f28e8600b4aa8c65c6b64bfe7fe36bd19b0155808054019055337f0b0376a109cbb578b709f85f6a7befcdac3ac1ab251c99ede87f30c9572ac4d3600080a2005b634e487b7160e01b60009081526032600452fd5b634e487b7160e01b60009081526041600452fd5b83634e487b7160e01b60005260216004526000fd5b015190508b80610948565b8b9291601f1983168560005282600020926000905b828210610a8e575050978360039910610a76575b505050811b01905561095a565b015160001983891b60f8161c191690558b8080610a69565b838b015185558f96909401939283019290810190610a55565b8360005281600020601f840160051c810191838510610ae6575b601f0160051c01908c905b828110610ada57505061092d565b60008155018c90610acc565b9091508190610ac1565b88634e487b7160e01b60005260416004526000fd5b60405162461bcd60e51b81526020600482015260148184015273155cd95c88185b1c9958591e4818dc99585d195960621b6044820152606490fd5b3461013e5760208060031936011261013e5760006060604051610b6281610e27565b8281528184820152816040820152015260043560005260088152604060002060405190610b8e82610e27565b80548252610bfe610ba160018301610f86565b91848401928352610beb6003610bb960028401610f86565b9260408701938452015493606086019485526040519687968188525190870152516080604087015260a0860190610d9c565b9051848203601f19016060860152610d9c565b905160808301520390f35b3461013e57600036600319011261013e57610c22610ebc565b600454610c2e8161102c565b90610c3c6040519283610e43565b808252601f19610c4b8261102c565b0160005b818110610d6257505060005b818110610cc1576040805160208082528551818301819052600093600582901b8401810192808901929185015b828710610c955785850386f35b909192938280610cb1600193603f198a82030186528851610dc1565b9601920196019592919092610c88565b60019081810191828211610d4c57610d47926000526003602060068152604060002090610cff60405194610cf486610e0b565b835486528301610f86565b9084015260028101546040840152015460ff90610d2182821660608501610f14565b60081c1615156080820152610d368286611053565b52610d418185611053565b50611044565b610c5b565b634e487b7160e01b600052601160045260246000fd5b602090610d6d610f5a565b82828701015201610c4f565b60005b838110610d8c5750506000910152565b8181015183820152602001610d7c565b90602091610db581518092818552858086019101610d79565b601f01601f1916010190565b9081518152610ddf602083015160a0602084015260a0830190610d9c565b91604081015160408301526060810151600281101561079e576060830152608090810151151591015290565b60a0810190811067ffffffffffffffff8211176105b557604052565b6080810190811067ffffffffffffffff8211176105b557604052565b90601f8019910116810190811067ffffffffffffffff8211176105b557604052565b81601f8201121561013e5780359067ffffffffffffffff82116105b55760405192610e9a601f8401601f191660200185610e43565b8284526020838301011161013e57816000926020809301838601378301015290565b6000546001600160a01b03163303610ed057565b606460405162461bcd60e51b815260206004820152602060248201527f4f776e61626c653a2063616c6c6572206973206e6f7420746865206f776e65726044820152fd5b600282101561079e5752565b90600182811c92168015610f50575b6020831014610f3a57565b634e487b7160e01b600052602260045260246000fd5b91607f1691610f2f565b60405190610f6782610e0b565b6000608083828152606060208201528260408201528260608201520152565b9060405191826000825492610f9a84610f20565b9081845260019485811690816000146110095750600114610fc6575b5050610fc492500383610e43565b565b9093915060005260209081600020936000915b818310610ff1575050610fc493508201013880610fb6565b85548884018501529485019487945091830191610fd9565b915050610fc494506020925060ff191682840152151560051b8201013880610fb6565b67ffffffffffffffff81116105b55760051b60200190565b6000198114610d4c5760010190565b805182101561059f5760209160051b010190565b6001600160a01b0316600090815260056020526040902054801561109b576000526006602052600260406000200154151590565b5060009056fea2646970667358221220240f1a84e2416bf4450e91fdd0e1154b3a6ce5181daed39a94afd0b2c77c8ada64736f6c63430008140033",
  "linkReferences": {},
  "deployedLinkReferences": {}
}